:100000006F30F075130000001300000013000000B3
:100010001300000013000000130000001300000094
:100020001300000013000000130000001300000084
:08003000130000007300100032
:100038000000000000000000EC3C0000503D000003
:1000480000000000F63E0000000000000000000074
:10005800F83E0000FA3E000000000000000000002A
:100068004232000000000000100200000000000002
:10007800003F0000023F0000043F0000063F000070
:10008800083F00000A3F000066360000D236000034
:100098003E370000AA37000016380000163F00005F
:1000A800183F00001A3F00001C3F00001E3F0000E0
:1000B800203F0000223F0000243F0000263F0000B0
:1000C800283F00002A3F00002C3F00008238000033
:1000D800303F0000323F0000343F0000363F000050
:1000E800383F00003A3F00003C3F00003E3F000020
:1000F800403F0000423F0000443F0000463F0000F0
:10010800483F0000643B00004C3F00004E3F0000A9
:10011800503F0000523F0000543F0000563F00008F
:10012800583F00005A3F00005C3F000000000000FC
:080138000000000000000000BF
:1001400097520020938202EC938202E07390023473
:1001500003210500224573100530B1A81971232031
:10016000250006C006C216CAF322003093F28200B0
:10017000638402009302000816C412C81ACC1ECE73
:1001800022D026D22AD42ED632D836DA3ADC3EDE37
:10019000C2C0C6C2CAC4CEC6D2C8D6CADACCDECEA7
:1001A000E2D0E6D2EAD4EED6F2D8F6DAFADCFEDE17
:1001B00003A1050009A002457310153492403725AC
:1001C000000013050580732005302245732005309B
:1001D0004242D2426243F243025492542255B255F3
:1001E0004256D2566257F257064896482649B649B3
:1001F000464AD64A664BF64B065C965C265DB65D73
:10020000465ED65E665FF65F0961730020300000CF
:10021000197116CA9302000816C406C212C81ACC75
:100220001ECE22D026D22AD42ED632D836DA3ADCC6
:100230003EDEC2C0C6C2CAC4CEC6D2C8D6CADACC96
:10024000DECEE2D0E6D2EAD4EED6F2D8F6DAFADCA6
:10025000FEDE731101347129EF10007DC921731185
:1002600001341384818903290400630409022320D3
:100270000400732510342AC013840189044023A08C
:10028000240013844189044003A104000245731033
:1002900015349240B72200009382028073A002308E
:1002A000A24273A002304242D2426243F24302545D
:1002B00092542255B2554256D2566257F2570648CA
:1002C00096482649B649464AD64A664BF64B065CDE
:1002D000965C265DB65D465ED65E665FF65F09613A
:1002E000730020300000397101436EC619A03971C6
:1002F00041536AC866CA62CC5ECE19A039710153F7
:100300005AD056D252D44ED64AD826DA22DC06DE4D
:1003100033016140828241114AC026C222C406C60E
:100320008282B24D4101024D924C224CB24B4101AE
:10033000024B924A224AB249410102499244224464
:10034000B240410182803D432A876373C3029377A1
:10035000F700BDEFADE5937606FF3D8ABA960CC374
:100360004CC30CC74CC74107E36BD7FE11E2828038
:10037000B306C3408A069702000096966780A600DF
:100380002307B700A306B7002306B700A305B700ED
:100390002305B700A304B7002304B700A303B700E5
:1003A0002303B700A302B7002302B700A301B700DD
:1003B0002301B700A300B7002300B700828093F5A4
:1003C000F50F93968500D58D93960501D58D61B770
:1003D000939627009702000096968682E78086FA19
:1003E0009680C1171D8F3E96E374C3F8A5B703A589
:1003F00081808280EFF23FF29387818098430507E6
:1004000098C3EF1020203C45FD173CC589E77C418F
:100410003CC5EF10E023EF10E05005B76342050242
:100420009307803E3347F5023365F5023305F50245
:100430001305753E3345F5023307F7023A9582807E
:100440007D55828001458280014582800145828000
:1004500001458280EFF23FEC1964996413044494DF
:100460009384049563639400C9BD1C401104829772
:10047000D5BFEFF25FEA196499641304049593847D
:1004800004966363940055BD1C4011048297D5BF48
:10049000EFF27FE8F93FEF30F01145B5EFF2BFE73B
:1004A000B705000037450000D147294793060020D3
:1004B00001469385054913050554EF100015EF100B
:1004C000802CA5BDEFF23FE5EF10E056EF20105075
:1004D000EF00B013EF102050EF009064C137EF1021
:1004E00020509528EF00B066014581BDEFF2BFE2D4
:1004F000D13F014599B5EFF27FE093894186EF1036
:10050000805383A74186AA8463953701EF10605317
:1005100005B583A741869443D843C84B1389C7FECA
:10052000D8C214C3DCC39CC3EF00503C4A85EF0023
:1005300050572685EF10E050D9B7EFF2DFDD138476
:100540008193130904011C4091C382971104E31C99
:1005500024FF5537EDB7EFF21FDC37060000B74533
:100560000000930800027D489307001013878194D0
:1005700081461306A653938585541385818BEF100E
:1005800040051385818BEF10002045BBEFF2BFD8EB
:100590003115EF10801A01454DB3EFF2DFD741114D
:1005A0002A842E8532C62EC4EF10A00F3246A245F3
:1005B00019C68547630DF60001454101BDBB584092
:1005C000938745011CC398CD5CC0C0C9F5B71C40DA
:1005D0006388870083C6550303C7170263FAE600E2
:1005E000D4431387450198C294CDD8C3DCC9E9B779
:1005F0009C43F9BFEFF23FD24111B2842E86894568
:100600002A8436C6EF00D03BB246930744011CCC87
:100610005CC846AC14B40145410105B3EFF21FCEEE
:1006200083A7018541112EC62A8491C38297EF10BA
:1006300080405E2CAA8989CFFD175EACEF10604028
:1006400083A7C184014591CB22858297014531A0C2
:10065000B24791E7EF10E03E79554101D1B9EF0083
:10066000707A232805021034AA85AA841305440150
:100670002D37B247635CF0001389C40470008145D4
:100680004A85EF1080244A85EF10A0194E85EF109F
:10069000403BEF00904E885845D5C1B7EFF2BFC739
:1006A00083A7818441112A8491C38297EF10A038D7
:1006B0005C4813074401AA84638FE7003E85F9353F
:1006C00005442685EF10E037014515C02AC6EF0026
:1006D000D04A324529A85E2C41677D176386E70022
:1006E00085075EAC0144F1BFEF10A035755541019F
:1006F000A9B1EFF25FC24111EF10E03313874181DE
:100700001C23850793F7F70F1CA383A7C18081C71C
:100710002AC682973245EF10C032410139B9EFF253
:100720009FBF4111EF102031138741811C23FD171A
:1007300093F7F70F1CA383A7018181C72AC682976D
:100740003245EF1000304101CDBEEFF2DFBCEF10BB
:10075000802E03C44181EF10C02E1374F40F228544
:10076000E9BE937808044111639E0800916893885C
:10077000486F93730801638B03001378E8FF930EAF
:10078000000219A8916893880865E5B713731800EB
:10079000930E0003E30503FE13732800630E0306A4
:1007A000635806023306C0409302D0020A8E814F7E
:1007B000294F6395E6073373D6023356D602469324
:1007C00003430300850F050EA30F6EFE7DF20DA0FF
:1007D000137348009302B0026317030093728800FA
:1007E000B3325000960279F2930600035480854F8D
:1007F000FE8663D3FF00BE8613781801158F63133E
:100800000804638502006353E0007D172A86B3085D
:10081000E5001303000221A88142F1B71373F6002B
:10082000118271BF6374B600230066000506338829
:10083000C840E34900FF3A866353070001467D172D
:100840003295118F638802006374B5002300550050
:100850007D17050563870302AA96130800031DA8E8
:100860006374B6002300D60105063388C840E34907
:1008700000FF3A866353070001467D173295118FBA
:10088000E1BF2A86B308E500CDB76374B500230045
:10089000050105053386A640E3C9CFFEFD56FD1FC1
:1008A0006383DF0099E7AA873306E5001308000297
:1008B00031A86376B5003306F101102210A10505B9
:1008C000F9BF63F4B700238007018507B306F6403C
:1008D000E349D0FE6353070001473A954101828006
:1008E000EFF27FA32A84953501C523AC8180B1B492
:1008F000EF0050517DD900D9DDBF0D47AA8763763F
:10090000C7009377350091C7AA873E966397C706BD
:10091000828093F7F50F13978700D98F13970701FC
:100920005D8FB308C500AA87BD463388F84063EBE6
:10093000060393574600C156B386D7029207AA977B
:100940000D4836963383C700BE86B308D340636232
:10095000180313572600F156B306D7020A07BA97B1
:10096000369665B798C3D8C398C7C10723AEE7FECC
:100970006DBF910623AEE6FEC9BF8507A38FB7FE04
:1009800071B763F2A504B386C500637ED5029345B3
:10099000F6FF8147FD176393F50082803387F600E9
:1009A000030807003387C7002A9723000701DDB734
:1009B0003387F500830607003307F500850714A386
:1009C000E318F6FE82808147E5BF0DC6AA8785053C
:1009D0000387F5FF85079306F6FFA38FE7FE09EB74
:1009E0003E9685076393C7008280A38F07FED5BF1D
:1009F0003686F1FE828001476314E600814739A8FC
:100A0000B307E50083860700B387E5009C23B3871F
:100A1000F640E207E18799E30507F9FE3E8582800B
:100A2000EFF2FF8CAE8BB30A75012A8BB68563F5A6
:100A3000AA00934BF5FFFD5AC164374900005A855F
:100A40009309B002130A0002FD141309C96E31A8FC
:100A5000130750026388E702637355011CA19307D3
:100A600015003284130614003E8583070600EDF35B
:100A700063860B006375552F230005003305654120
:100A80006FF07F8A01481307D00293063002930863
:100A9000000331A0639E3701136848002286830754
:100AA000160013041600E397E7FE13680801FDB76C
:100AB0006395470113688800D5B76395D70013681D
:100AC0000802E9BF6395170113681800C1BF1387B7
:100AD00007FDA54663E6E6040147A546A94839A0F7
:100AE0003307170305043E97130707FD8307040028
:100AF000138607FDE3F6C6FE030604009306E00234
:100B0000FD57631FD604830714002546930614007F
:100B1000938807FD6365160B8147A548294E3DA0C4
:100B20009306A0027D57E399D7FC98411304260051
:100B30009105E35307FC3307E040136808016DBFDC
:100B4000B387C7038506B297938707FD0386060020
:100B5000130306FDE3F668FE63D30700814736847E
:100B60008306040013068006814813F3B6FF63155D
:100B7000C30093F8F60F05040306040093069006DD
:100B80006303D60663C5C60693068005630ED61AB0
:100B900063C3C604930750026302F61A63755501D6
:100BA000930750021CA1030704009307150063017B
:100BB000071A63F3570118B19307250065B51306AB
:100BC000A0026397C7009C4193062400910569B772
:100BD0003684814771B7930630066301D6089306C1
:100BE0004006E31DD6FA13682800A94699A093068B
:100BF00030076302D60C63C5C6029306F006630B8A
:100C0000D61493060007E31BD6F8FD566315D700EC
:100C1000136818002147138C4500C146904115A860
:100C200093065007E303D6FC13038007C146E3177E
:100C300066F61306C006138C4500E381C8FE130652
:100C40008006E39DC8FC90419375280063960510CB
:100C5000658ED6853936AA87E28529B513780801CD
:100C600063150802BA879306000229A06373550131
:100C700014A10505FD17E34BF0FE9307F7FF63434F
:100C8000E00005473387E740050793864500637416
:100C900055019C411CA1930715002A97930500025A
:100CA0003306F7406344C000B6856DBB63F357015C
:100CB0008CA38507F5B790419388450011E24A86D9
:100CC00081466387E600B305D6008385050091ED74
:100CD0006355F00063D3D700BE8613780801631014
:100CE0000802BA879305000201A88506D9BF63737D
:100CF00055010CA10505BA877D17E3CAF6FE8147A9
:100D0000639DD700B307D5003E97930500023306D5
:100D1000F74063C0C602C685B1B3B305F50063F8FA
:100D200055013308F60003080800238005018507F4
:100D3000C1BF63F357018CA38507D1BF637355010E
:100D400010A19307150039BB13680804C146D5B537
:100D50007D1409BBA146F1BD42064186DDBDA38FCE
:100D60000AFE29BB03A5C1818280EFF2CFDA03A975
:100D7000C181EF20402E6303A902AA8409CD138408
:100D8000C181084019C1EF20203993053004268520
:100D9000EF20C03004C04A856FF02FDA0149E5BF6B
:100DA0008280397126CA2ED232D436D62A86541081
:100DB0009305F007138581A43EDA36C606CE22CC11
:100DC0003AD842DC46DEA939AA8603A5C18109E9E1
:100DD000138581A4F137F2406244D24421618280BC
:100DE0002686262D1384C18193E704043EAD930724
:100DF000F00763F4D7009306F007138681A48145BA
:100E0000EF2020371C40A6AFF9B7EFF2CFD037451F
:100E10000000130545667137374500001305056767
:100E200049373747000037450000130747699546A3
:100E300005468D451305056AAD3737450000130596
:100E4000056C85376FF06FCF31C591661377F50F5D
:100E50009386065509C7BA96882205058280C16720
:100E6000938707F0E98F81CB21851377F50F3697AC
:100E7000082325058280B707FF00E98F81CB4185D4
:100E80009377F50FB6978823450582806181369563
:100E900008216505828003A741825C41BA976305FA
:100EA000F502B62395E283A60182638FF60093864E
:100EB000818290426313F60088C2D44354C1DC435C
:100EC000B306E540BA9794C71045B307C700630F50
:100ED000F500B62381EE938681828C426393A50050
:100EE0009CC25441D4C35C413E9710C78280EFF24C
:100EF0008FC283A5018337450000130585705535E2
:100F000083A5C183374500001305C571593D83A5ED
:100F1000C182374500001305057361356FF0EFC1DD
:100F2000EFF26FBF13F7C5FFE1462E8663F1E606C9
:100F300093073500F19B930687FE63EAF6041D8F45
:100F4000130687FE23A8C182896651171384418244
:100F5000938606EAD8C394C323A407001CC0BA979B
:100F600023A0F182C966938606EAB745000094C3C0
:100F7000D8C398C7814605469385857C138581AC87
:100F8000EFF04FE7184023A4E1826FF00FBBAA8572
:100F9000374500001305057D2935C5BFEFF2AFB712
:100FA00039C503A7018313043500719813890183A0
:100FB00081446366870EB1476373F4003144FD5585
:100FC000138581ACEFF08FE583A7818283A54182F1
:100FD0008328090026853386B740B3868840138866
:100FE00081826368D600138581ACEFF02FEB8144DA
:100FF0007DA0B384C500BA2003AE440061E7330787
:10100000CE40930F47FF63EF8F0A138FC183938EF8
:10101000C1821303840183260F0083A30E0013896A
:10102000C1839382C18263EF6F061307C4003297B6
:10103000896E3383E500938E0EEA2322C3012324B5
:10104000C3002320D3010546D8C0B2A00326430025
:10105000B108630416012E9618C61387C60022979E
:101060002320E90063F4E30023A0E20009671307EB
:1010700007EA9AA0639A970083A601820147B223E8
:1010800005EE19C32320F800138581ACEFF00FE1C2
:1010900083A78183B10481C7A2852685829726858F
:1010A0006FF0AFA905463697B2A02320EF00E3FF0B
:1010B000E3FA23A0EE005DBFE385D7FCDC430547E0
:1010C000AE9775BF728631BFEFF2EFA43306B5025B
:1010D0004111328532C6D9352A8409C53246814547
:1010E000EFF0BF81228541016FF02FA545C5EFF2DA
:1010F000EFA083A741832A8491C3829783A741826B
:10110000138941826366F40883A701826372F4083D
:10111000FD55138581ACEFF06FD0835764FF9309C1
:1011200044FF81CB035744FF8967938707EA630134
:10113000F702374500001305C577A531835644FFF4
:10114000035664FF37450000CE8513058579913934
:101150008967938707EA231AF4FE9387818298436D
:10116000231B04FE63F4E90023A037011387C18326
:101170001C43832684FF4E85958F83260900B38602
:10118000D940B6971CC3013B138581ACEFF00FD15A
:101190006FF00F9A8280B7070020938607000147FF
:1011A0009387070021468C426396A50013154700DC
:1011B0003E9582800507C106E317C7FE0145828080
:1011C000EFF2CF932A842E85AE89328AE9372A89B5
:1011D0004D2483244900930749006390F4047D243F
:1011E00093E909F8230434012146D2852285EFF0E2
:1011F000CFFD83A7018499C322858297EF00B003B6
:10120000032749009307C4005CC358C42322F90094
:1012100004C8EF0010036FF0AF9184407DBFEFF280
:101220008F8F83A741842A8491C38297230404006B
:10123000EF007000544418489307C400D8C214C388
:101240001CC85CC4EF00E07F6FF02F8FEFF20F8BB4
:101250002E89AA898937AA84484589332A841DCDD5
:10126000D0448145EFF06FE9214623043401A30403
:101270000400CA852285EFF04FF583A7018499C346
:1012800022858297EF00207BD8409307C400910409
:101290005CC358C49CC004C8EF00A07A22856FF0DC
:1012A0002F89EFF24F8783A741842A8491C38297C5
:1012B00023040400EF002078544418489307C40026
:1012C000D8C214C31CC85CC4EF00A0772285393D86
:1012D0006FF0AF86030585007D818280EFF20F827B
:1012E000AA892E854D3D638C0900AA8401441DC145
:1012F0004922910403A9040063159900412A01447D
:1013000011A8130449FF2146CE852285EFF0AFEEE8
:1013100009E5AD2A22856FF0AF8103290900E9BFF5
:1013200023900186938781AE13870710DCC39CC38B
:10133000A107E39DE7FE7D47238AE18423AC018476
:1013400023A6018693874186DCC39CC38280EFE29B
:101350009FFC03A5C186EFF03FAF7D1593173500C5
:10136000138581AE3E9508411307C5FE210523ACC8
:10137000E184EFE0FFDC6FE05FFCEFE2DFF9EF001C
:10138000806B839701862A89B1E703A5C186EFF0B8
:10139000BFAB7D1513173500938781AEBA97844391
:1013A0009387818580439385C4FE6305B4028CC313
:1013B00083A7C185238AA18499C32285829783C785
:1013C00041811305C4019385840093F7F70F81EBE6
:1013D000EFE0DFD84A85EF00C0666FE01FF6EF0050
:1013E000A066CDBFEFE23FF32A84EF00C0648347DD
:1013F000440393064401C19B93E71700230AF402B8
:101400008347540313973700938781AEBA97D84325
:1014100014C318CCD4C35CC89387C1869443185CAA
:10142000558F98C3EF00E0616FE03FF1EFE2BFEE50
:101430002A84EF004060184C544893074401D8C2F6
:1014400014C35CC81CCC834754031397370093879D
:1014500081AEBA979843631AF7001387C1861C5C64
:10146000144393C7F7FFF58F1CC3EF00805D6FE057
:10147000DFECEFE25FEAEF00005C938701869A23DE
:1014800005079AA3EF00E05B6FE03FEBEFE2BFE8F8
:101490005D23138701861E23FD17C207C1871EA384
:1014A000634BF00023100700692B83A7818591C34C
:1014B000E9356FE09FE87123EDBFEFE2DFE52A84B5
:1014C0009D2B3C5CAA8499C3228582972685952B07
:1014D0006FE0BFE6EFE23FE403A48185A92BAA8475
:1014E0002285E13F228599379147230AF4021305AB
:1014F000C40431262285F93B85476319F50022850E
:10150000393BA53D2685352B6FE03FE383A6418619
:101510001307440123A2E186D8C29387418654C8A9
:101520001CCCC5B7EFE23FDF2A845105411108CC3E
:1015300048C80CD050D014D43A8658D49305300201
:1015400036853EC642C4EFF04FBB585410544C5041
:1015500008507117B71600003A969386464D5121F0
:10156000B24722483716000048CC230BF402A30AE6
:10157000F402232C040281472322040523240405BA
:1015800023280402230A0402232C0406232E040623
:101590000147A2861306265BA2851305C4041D24F9
:1015A00083A7018799C322858297014541016FE096
:1015B000DFD8EFE25FD65049144D795718D954C29D
:1015C0001307450190C218CD58C9293D7D336FE0FE
:1015D000DFD6EFE25FD44111B2842E8685452A849E
:1015E000368946C03AC63EC442C2EFF07FBD0248CB
:1015F00092472247B2464A86A68522852537410171
:101600006FE0BFD303A581858280EFE23FCF411118
:101610002E89AA85054532C6B684BA893E8AEFF07E
:10162000FFC22A8411C92685EFF05F97324609E987
:101630002285EFF01FC70144228541016FE05FCF93
:10164000AA865288CE872687CA852285E13DEDB7D6
:10165000EFE27FCCCD2683A781850546AA8603C706
:1016600047033D8B631CC702D04B984F6308E602CB
:1016700058C210C303C65703938647010E0613874B
:1016800081AE94CF3297504314C290CF54C3D8CB7D
:101690004D2EEFF09FCE01456FE03FCA36855526AF
:1016A000DDBF834745030547BD8B639FE702EFE23C
:1016B0009FC62A844926AA842285EFF03FD7834714
:1016C00044031305C404C19B93E72700230AF402D3
:1016D000E9222685BD2683A78187014581C722850A
:1016E000829701456FE07FC57D558280EFE2BFC2E2
:1016F00041112AC6892603A481852A892285553766
:101700009304C404700081452685C1222685112AD0
:101710004A85052EEFF07FC61858F9576314F70075
:1017200023280402014541016FE03FC1EFE2BFBE43
:10173000EFE0DFCE653F6FE05FC0834745030947B9
:10174000BD8B6390E704EFE21FBD2A84ED2454486B
:10175000184C93074401AA84D8C214C31CCC5CC89B
:101760001305C4041D2A2685E92C2285EFF09FC7A6
:1017700083A74187014581C72285829701456FE094
:10178000DFBB7D558280EFE21FB9834665030547C5
:101790003317D70018DD0947A30AD502230AE5024B
:1017A000693F83A7818599C3EFF03FBD01456FE095
:1017B000DFB85449184D93074501D8C214C31CCD56
:1017C0005CC98280EFE23FB54111B2842E86A94503
:1017D0002A8436C63AC43EC2EFF09F9E9247B24674
:1017E0002247F99B1CB49307440144CC14D0232412
:1017F000040258D01CCC5CC841016FE01FB4EFE27A
:101800009FB12A840D2CAA84228565371C34268535
:10181000F99B1CB43D242285EFF07FA001456FE0C9
:10182000DFB1EFE25FAF2A843924AA8422855137E1
:101830001C34F99B1CB483A7C18499C32285829769
:10184000EFE0FFBA5C50370600801346E6FF3E9596
:10185000138781884C4308D4938781889843639683
:10186000F5029386C18790422685050690C29306AD
:10187000440154C358C894C31CCC1C3493E71700CC
:101880001CB4C12201456FE05FAB544B6305D5002A
:10189000898EE378D6FCBA87D1B71C35858B85C78E
:1018A000EFE27FA783A781842A8491C38297612274
:1018B000AA842285FD3D1C342685F99B1CB4512247
:1018C00001456FE09FA77D558280EFE2DFA44111C3
:1018D0002EC62A8432C48522B245914763EFB700F1
:1018E00095679387C7808A05BE959C41224682876B
:1018F0005C501CC219A01C425CD0A12201454101D0
:101900006FE0BFA31C34F59B1CB4C5BF1C3493E728
:101910002700DDBF1C34858B99C38547D9BF2320A1
:101920000600E1BFEFE2BF9C4111130981004AC6E6
:101930004AC4EFE0DFABAA8CFD28370A0080AA8AF0
:1019400093848188134AEAFF0D4C8040631794000A
:101950005685C52841016FE01F9D48489309C4FE84
:101960003385AC40E366AAFE83A7018899C34E8500
:1019700082974E85EFF0FFE3834754FF13F727006C
:1019800001E7F99BA30AF4FEA2474844C0C31CC068
:101990001C4422C4232224018297EFE05FA583A781
:1019A0004188AA8C99C34E858297A247E38F27F975
:1019B00018405C405CC398C3834754FF40C000C0DC
:1019C00013F73700E31387F9F99BA30AF4FE4E855A
:1019D000EFF03FE59DBF93878188DCC39CC3828085
:1019E00082801106719A2A8837C7ADDE130506F882
:1019F000AA871307F7EE631EF600896793870788A7
:101A00002322D6F82324B6FA232006F92324F6F855
:101A1000828098C39107C5B737F700E01C43B7062B
:101A20000080D58F1CC3828037F700E01C438607F7
:101A300085831CC3828009651305058073150530F5
:101A40008280731005308280EFE2FF8C13878189DA
:101A500018439387818919E323A8A18823AAB18811
:101A6000054798C3553F6FE05F8D2A87814718432C
:101A70006314A7003E8582808507D5BFEFE2BF894A
:101A8000EFF0AFB801456FE05F8BEFE23F870041B9
:101A9000AA8437590000B7590000631494006FE01E
:101AA0003F899305C4FE130549FDEFF08FAF1C403D
:101AB00063869700138589FDEFF0AFAE0040F1BF5C
:101AC000EFE2DF833755000013058587EFF06FAD38
:101AD00003A4C189B7590000375A000083A7018ABF
:101AE0006365F40001456FE0BF84044009469385B7
:101AF000C9882685EF20102019C55040A6851305FA
:101B00000A89EFF00FAA3104D1BFDC4523A80500F4
:101B1000BDC7EFE2AFFE9C252A84AE84014595C780
:101B200083A90500014919E04E840549EFF0BFF093
:101B3000AA86631E09008347C4FF982493F7F7F72A
:101B40006387E700EFF0FFEF01456FE06FFED040E5
:101B5000814700403E89638289021397270003A9C9
:101B6000C400329700C38507E39527FF3685EFF061
:101B70005FED228523A82401C9BF0144C5BF0145EB
:101B80008280EFE24FF92544B75400007D1419E03C
:101B90006FE0AFFA138504FDEFF0AFA0C5BFEFE231
:101BA0000FF55D711545EFF00FDF11052ACE954752
:101BB000375600003755000013068698A1451305D7
:101BC00005992302F102130A0103A1473ED452D022
:101BD00002D6EFF00F9D7537375500001305459B72
:101BE000EFF02F9C8149B75A0000375B0000B75BCC
:101BF00000004E856C08EFF05FF1AA898144B2576E
:101C000063C8F400E39709FE014561616FE0AFF13D
:101C100093972400D2978043EFF0FFE103474102FE
:101C20008347C4FF93F7F7F76386E700EFF07FE1A0
:101C30008504F1B7EFF0FFE05E287A2810449306A0
:101C400044FF130984003AC63EC436C24A8563067F
:101C5000C902EFF09FE1A247324792462A88214607
:101C6000A14513050B9DEFF0CF934A85EFF0FFE1FF
:101C700013858B8FEFF0EF9265BFEFF01FDFA24768
:101C8000324792462A882146A14513858A9EEFF065
:101C90004F9179BFEFE2AFE539712545EFF0AFCF56
:101CA00011052AC6A5473756000037550000130610
:101CB000868AA1451305058B230AF100930A0102C8
:101CC000A1473ECC56C802CEEFF0AF8DEFF07FEBD0
:101CD000375500001305858DB7590000156AEFF0E0
:101CE0004F8C0149375B00009389098A130A0A82E5
:101CF0004A856C00EFF07FE12A890144D54BF24719
:101D00006348F400E31609FE014521616FE0AFE18D
:101D100093172400D6978443EFF0FFD10347410186
:101D200083C7C4FF93F7F7F76386E700EFF07FD12F
:101D30000504F1B7EFF0FFD09C44938644FF4E8733
:101D400063E5FB008A07D29798439C282146A1456A
:101D50001305CB8FEFF0EF84E1BFEFE22FDA39719B
:101D60002945EFF04FC311052AC6A9473756000091
:101D700037550000130686C2A145130505C3230A83
:101D8000F10093090102A1473ECC4EC802CEEFF00C
:101D90004F81EFF01FDF37550000130585C5EFF0C9
:101DA0004F800149375A0000B75A0000375B0000E6
:101DB0004A856C00EFF07FD52A898144F24763C1E0
:101DC000F402E31709FEEFE08FE2AA853755000021
:101DD000130505CBEFE0FFFC014521616FE04FD516
:101DE00093972400CE978043EFF0FFC4034741014F
:101DF0008347C4FF93F7F7F76386E700EFF07FC4EC
:101E000085046DBFEFF0FFC35C4C184C1305CAC7C7
:101E1000930644FF2146A145EFE0BFF88347D4FF76
:101E200013054BC9858B99E313850ACAEFE07FF749
:101E3000C1BFEFE24FCB55710545EFF0CFB51105AE
:101E40002ACE854737560000375500001306C6B224
:101E5000A145130545B32302F10293090103A147EC
:101E60003ED44ED002D6EFE0DFF3EFF09FD13755EE
:101E70000000130585B7EFE0DFF20149375A000093
:101E8000B75A0000375B0000B75B00004A856C085A
:101E9000EFF0BFC72A898144375C0000B75C0000BF
:101EA000375D0000B25763C8F400E31109FE014535
:101EB00069616FE00FC793972400CE978043EFF0DE
:101EC0009FB7034741028347C4FFAA8D93F7F7F7F3
:101ED0006386E700EFF0FFB68504E9B7930644FF99
:101EE000B68513060008880836C6EF2080516E8537
:101EF000EFF03FB503479402B24613058ABB214673
:101F0000A145EFE01FEA83478402054713054DBC56
:101F1000BD8B6384E702094713850CBD638FE7001F
:101F20001305CCBD99CB114713858BBE6387E700A2
:101F30000D476396E70013054BBFEFE09FE64C4C5F
:101F400093073002AE8698226305F702105093077C
:101F500040060848B295B386D540B386F602585C71
:101F60005C50898D13850AC0B3D6C602EFE07FE3CB
:101F7000A5B78506C9BFEFE26FB85D710D45EFF0FB
:101F80008FA111052ACE8D47375600003755000026
:101F9000130686A6A145130505A72302F10293099E
:101FA0000103A1473ED44ED002D6EFE09FDFEFF011
:101FB0005FBD37550000130545A9EFE09FDE0149DD
:101FC000375A00004A856C08EFF03FB42A898144F3
:101FD000B25763C8F400E31709FE014561616FE081
:101FE0002FB593972400CE978043EFF0DFA40347EB
:101FF00041028347C4FF93F7F7F76386E700EFF0EA
:102000005FA48504F1B7EFF0DFA3930644FF130547
:10201000840036C6EFF07FA5034834015C48B24621
:10202000AA8821472146A14513054AABEFE07FD797
:10203000C9BFEFE2CFAB5D711145EFF0CF95110550
:102040002ACE9147375600003755000013060691F7
:10205000A145130585912302F102130A0103A1474B
:102060003ED452D002D6EFE0DFD3EFF09FB1375528
:1020700000001305C593EFE0DFD20149B75A000015
:10208000375B0000B75B00004A856C08EFF0FFA7E4
:102090002A898144B25763C8F400E31709FE014559
:1020A00061616FE04FA893972400D2978043EFF0CF
:1020B0009F98034741028347C4FF93F7F7F763866E
:1020C000E700EFF01F988504F1B7EFF09F971C44ED
:1020D00093098400930644FF18486388F9024E85EB
:1020E0003AC636C4EFF07F983247A246AA87214607
:1020F000A1451305CB95EFE0DFCA4E85EFF0FF98C1
:1021000013858B8FEFE0FFC97DBF2146A145138565
:102110004A97EFE01FC945BFEFE26F9D5D7109452A
:10212000EFF06F8711052ACE8947375600003755E3
:1021300000001306C6ACA145130585AD2302F102CC
:10214000130A0103A1473ED452D002D6EFE07FC567
:10215000EFF03FA337550000130545AFEFE07FC414
:102160008149B75A0000375B0000B75B00004E851D
:102170006C08EFF09F99AA898144B25763C8F400B4
:10218000E39709FE014561616FE0EF9993972400A1
:10219000D2978043EFF03F8A034741028347C4FF51
:1021A00093F7F7F76386E700EFF0BF898504F1B78F
:1021B000EFF03F891A281C44930644FF130984005A
:1021C0003AC636C44A856305F902EFF01F8A3247E2
:1021D000A246AA872146A1451305CBB0EFE07FBCFC
:1021E0004A85EFF09F8A13858B8FEFE09FBB7DBF01
:1021F000EFF0BF873247A246AA872146A145138543
:10220000CAB1EFE01FBA5DB7EFE26F8E5D7119459D
:10221000EFE07FF811052ACE994737560000375571
:102220000000130606A0A1451305C5A02302F10274
:10223000130A0103A1473ED452D002D6EFE07FB685
:10224000EFF03F9437550000130585A2EFE07FB50E
:102250008149B75A0000375B0000B75B00004E852C
:102260006C08EFF09F8AAA898144B25763C8F400D2
:10227000E39709FE014561616FE0EF8A93972400BF
:10228000D2978043EFF02FFB034741028347C4FFFF
:1022900093F7F7F76386E700EFF0AFFA8504F1B73D
:1022A000EFF02FFA1A2C1C44930644FF1309840004
:1022B0003AC636C44A856305F902EFF00FFB324790
:1022C000A246AA872146A14513050BA4EFE07FADE6
:1022D0004A85EFF08FFB13858B8FEFE09FAC7DBFBE
:1022E000EFF0AFF83247A246AA872146A1451385F1
:1022F0004AA5EFE01FAB5DB7EFE2EF813755000075
:102300004111FD57130505113EC6EF00D054700072
:102310008546FD55EF00F0630305C10041016FE004
:10232000CF81EFD2BFFD3755000013054515EFE013
:102330005FA703A4C189B7590000375A000083A7DB
:10234000018A636BF400375500001305858FEFE0B9
:102350005FA501456FD0DFFD04401946938509173D
:102360002685EF20201901E950409385640013056C
:102370008A17EFE01FA33104D9B7EFD2DFF9EFF0EE
:102380005FAB01456FD07FFBEFD2FFF8EFE03FB6C8
:1023900001456FD09FFA05458280EFD23FF641118B
:1023A000AA842E849306000225476302041A8387B9
:1023B00004006384D7086382E70801491307000219
:1023C000A546B387240183870700638DE706638BE7
:1023D000D7066317240783A9C18983AA018A375BBB
:1023E000000063F3590703AA0900194693050B1768
:1023F0005285EF2020103DE94A86A68513056A0024
:10240000EF20400F25E54A9A83076A00A5E303A958
:102410008900630B090202C202C402C6A687814674
:10242000014713080002A5480D4313062002130EAE
:10243000C005636387043685D9A085047D14B5B7CC
:10244000050941B7E31909F8A68703870700137741
:10245000F7FD631C070E375500001305C5132380D5
:102460000700A685EFE0FF937D55ADA0B10995BFAC
:10247000238007000507850783850700638405011E
:1024800063981501E316E4FE8D476385F60065B792
:10249000639566043755000013058511EFE07F90C2
:1024A00092453754000013058413EFE09F8FA24537
:1024B00013058413EFE0FF8EB24513058413EFE09C
:1024C0005F8E375500001305858FEFE09F8D0D451A
:1024D0004C00029941016FD0BFE5E37E87F413857C
:1024E00016008A066392C5044C008507AE96050760
:1024F0009CC2838607006381C6026364870069F912
:10250000A1B7838517006396C6016394C50085074C
:10251000050785070507F1BFE37387FE23800700E2
:1025200005078507AA8631B74C00AE969CC2838604
:1025300007006389060163871601E302E4FC85074F
:102540000507F5B7E36087FE5DBF8507FDBD014563
:1025500051B7EFD2DFD98307050099E781450145DF
:10256000EFF03FDC6FD03FDC03AAC189AA89814428
:102570000149375B0000B75B000083A7018A6369EC
:10258000FA00EDD04A86A6854E85EFE00FC4D9BF8C
:1025900003240A00194693050B172285EF10907546
:1025A00021E14E85EF10F07319042A86A2854E852D
:1025B000EF10507415E5631709002285EF10707253
:1025C0002A89A284A68722870386070001EE858FC9
:1025D00063D327013E89A28513850B18EFE06FFCBA
:1025E000310A61BF83060700FDD2E312D6FE8507DC
:1025F0000507D9BFEFD23FD203A5018BEFE00F8AC9
:1026000001456FD09FD3EFD21FD1B75700009387FA
:10261000477E23AEF188B76700009387079423A015
:10262000F18AB76700009387079423A2F18AB767FE
:1026300000009387079493054021054523A4F18A60
:102640001384018BEFE05FA808C019E9375500003B
:1026500013058523EFE0EFF47D5422856FD0FFCD85
:10266000B725000037550000A9475547930600409D
:1026700001469385E57B13050525EFE01FF9AA8444
:102680000840B75500008146014693858525EFD067
:102690007FF6184001448347470293E7270023024F
:1026A000F702C5DC2685EFF00F8E45BFEFD2BFC61F
:1026B00083A7018B83C74702898B99E7238401BED7
:1026C000138581BE6FD07FC783A5C18A81C91306D8
:1026D0000008138581BEEF107064DDB7EFF0BFCB4B
:1026E00015C1B755000093854520138581BEEF10B5
:1026F000505EB755000093854521138581BEEF10CC
:10270000705B7DBFB75500009385C520F9BFEFD240
:102710009FC02A843755000013054527EFE06FE876
:10272000EFF0DFF8AA85375500001306A41B130548
:10273000C527EFE00FE701456FD03FC0EFD2BFBD27
:1027400041112AC6EF003011B24511E9375500009A
:1027500013058521EFE0EFE441016FD01FBE83A791
:10276000018BAA841384018B83A70721E386A7FE2C
:1027700093053014EF00901265F11C4003A507216A
:1027800009C9EF0070191C40814503A50721EF001E
:10279000502000401306000581451305A41BEFD00F
:1027A0009FBAB725000023150420231604202328F0
:1027B00094209385455F2685EF00B01D71BFEFD251
:1027C0001FB383A7018B41119384018B03C7470279
:1027D000136717002382E70283A7072191E7EFE041
:1027E0006FD819C1EFF09FF5EFF05FECEFE06FDB12
:1027F000B75A0000375B000037590000B759000096
:10280000375A00009C40A307010083A7072189EBEA
:10281000EFF09FAEAA851DA08840FD55EFD01FE0C8
:102820009C4085461306F10003A50721FD55EF00E6
:1028300050128547E312F5FE8305F100E3C405FC61
:10284000ED4780406395F50085471CD065BF1C505F
:1028500005476390E7029307B0056394F500894745
:10286000EDB723200402D9DDA5476397F512814B0C
:10287000D9A80947E399E7FE23200402930710042F
:102880006392F5046E30BDDDFD15C205C1816EB0E9
:102890009307A41B13070005B385E5021306000583
:1028A0003E859385A502A295EF10B035EF107043D9
:1028B000420541812315A4202316A4202285EFF090
:1028C0001FE589B7930720046391F50216347E3023
:1028D0001387F6FF63D8E70085077EB09307A41B34
:1028E0006E304DBF85D27AB0D5BF93074004639157
:1028F000F5028357C420E38707F013050926EFE0AC
:102900004FCA98408357C720FD172316F720DDBD17
:1029100093073004E399F5F48357C4200357A420A8
:10292000E3F2E7EE3E948305A41B13054A26EFE08D
:102930004FC798408357C7208507C1BF1305092695
:10294000EFE02FC6850B80408357C420E3C8FBFE11
:102950001385898FEFE0EFC4EFF0FFA385471304E1
:10296000A41B6315F5002285EFF0BFBEEFF01FD466
:10297000AA853755000022861305C527EFE06FC2F0
:1029800080401305A41BEF10D0354205418123156B
:10299000A4202316A420BDB59307F0076385F50096
:1029A000A1476395F5088357C420E38D07E40356D8
:1029B000A420FD17C2077D1642064182C18323155C
:1029C000C4202316F42063F8C7049385B71B13852E
:1029D000A71B1D8EA2952295EFD0BFFA9C40130530
:1029E0008B2603D7A7203E97230D071A83D5C72030
:1029F0009385A51BBE95EFE0CFBA9C4003D4C720BA
:102A00009C4083D7A720E3CF87DE13050926EFE09C
:102A10004FB90504F5B713850A27EFE08FB89C403E
:102A200003D7A720BA97238D071AE9BB35478357E9
:102A3000A4206385E50029476390E510B9CB835B4B
:102A400084029147130CA41B63FD7709930CA41611
:102A500013060005E2856685EF1070181DC9930BFB
:102A6000A4025E85938B0B0513060005DE85EF102F
:102A70005019E3987CFF1306000581456685EFD069
:102A80009F8C0356A420E2856685EF10901795472A
:102A90001EB41E347EB0EFF01F9085476312F5021E
:102AA0009C4083C74702858B89C71385898FEFE0D8
:102AB0004FAF88408355A5201305A51BEFF0FF8D70
:102AC000EFF0DFBEEFE0EFAD80401306000581457B
:102AD0001305A41BEFD03F872315042023160420E1
:102AE00015B363810B021385FBFF930700053305C4
:102AF000F50213060005E2851305A5022295EF10E5
:102B0000100E41D9930C000533859B031306000575
:102B100081451305A5022295EFD0FF820A340356A2
:102B2000A420E285330595031305A5022295EF1035
:102B3000500D1E348507A9BF1307F0046374F70016
:102B4000231504200356C4208357A420939B85019A
:102B500093DB8B416374F6089305A61B1305B61B24
:102B6000A2953386C7402295EFD0BFE18C4083D732
:102B7000C5203387F500230D771B03C74502058B5E
:102B800011CB9387A71B37550000BE95130545FD54
:102B9000EFE02FA19C4003D4C7209C4083D7A720FF
:102BA0006348F4029C4003D7A72083D6C7200507BB
:102BB0004207850641832396D7202395E720930675
:102BC000F004E3F1E6C423950720239607201DB9FE
:102BD00013050926EFE0EF9C0504C1B7A297238DEA
:102BE000771B83474402858BD5DF13054A26EFE028
:102BF0004F9B4DBF7C4123280504232A05049C4399
:102C000081CBEFD24FF19305850482976FD0EFF21D
:102C100001458280EFD28FEE36899DCAAA84328424
:102C2000B309D600294A1C20639B4701BE2C93F7A9
:102C3000070491C7FC40B54526859C478297FC4018
:102C40008305040026859C4705048297E31D34FD17
:102C50004A856FD0EFEDEFD20FEC93F705102A8481
:102C600091C71A2D61551377071035CF13F705401B
:102C700011C71A2C61551377074035C713F70504A0
:102C80009304000401E7262C93F40404384893F5D8
:102C9000F50F2EAC39EBA1C768442981420541816B
:102CA0003105EFE0AFAF70442A8931052982420631
:102CB000418281452320A900EFD03FC4232209008F
:102CC0003E2C232409002328240593E707103EAC5B
:102CD0007C4013060010C145DC43228582973E2CC0
:102CE0000145DD8C26AC6FD04FE5F5DB93E5051093
:102CF0002EACF5B70948AA8763810503EFD2AFE18F
:102D00000D486382050305476399E5041A2D13777F
:102D1000F7FD1AAD01456FD04FE21A2D1367070278
:102D20001AAD01458280328775D6504274454C2DCC
:102D30002982A9824206C2064182C1826304D6006A
:102D40001D45F1F91443B4C75443F4C7E1D5F44326
:102D5000BA853E859442829675BF7C41DC4382975A
:102D60005DBFEFD2AFD93684B1CA3E2DAA89328970
:102D700093F70710B6849DE37D5AA94A83A74904B7
:102D80004E85DC478297630945012300A900FD14A5
:102D9000050963035501FDF0058C0DA02449368A11
:102DA000854AEFE05FC9FE20DA202A869444631A40
:102DB000F70081EAEFE0FFC83304444122856FD079
:102DC0002FD798403E97034B070003A7C9048507F8
:102DD000C2072983C1834207FEA0418363E4E70061
:102DE000239304006394560123A404003285EFE08A
:102DF0005FC57D1A230069010509E3140AFA6DBF56
:102E0000582D854763ECE7023E2D93F707109DC7C9
:102E1000EFD26FD02A842849EFE04FAD3E2C232813
:102E200004041306001093F7F7EF3EAC7C40C54551
:102E30002285DC43829701456FD02FD001458280E7
:102E4000EFD26FCD37370000130747BF18D537379C
:102E50000000130767C558D537370000130707E090
:102E600018D937370000130727D658D9373700004D
:102E7000130747C118DD37370000130747CF420655
:102E800058DD34C14182232A050023200502232274
:102E90000502C92A6FD06FCA93F5F50F8547639174
:102EA000F50AEFD2AFC520494111AA847D59854961
:102EB000FC402685DC4782972A8A63072505EFE0D8
:102EC0009FB75A201C40BA97238047015E20F844E0
:102ED0008507C2072983C18342075EA0418363E45B
:102EE000E7002312040076205E20639CD70085074C
:102EF000C207C1837EA02324340163E4E7002313C7
:102F00000400EFE01FB46DB79C5085C3EFE0BFB283
:102F10005A206E20636EB700B305B7402EC6EFE0AF
:102F20005FB29C50B2452685829741016FD04FC059
:102F3000FC44998DA983C207C183B385B740F9BF0B
:102F4000828001CEEFD22FBD7841B2878E23184305
:102F50003222029701456FD04FBE7D558280EFD25D
:102F60008FBB1387C1C678432E86AA851843138565
:102F7000C1C602976FD06FBCEFD2EFB91387C1C63D
:102F800078432E86AA8558431385C1C602976FD011
:102F9000CFBAEFD24FB81387C1C67843AA8513853D
:102FA000C1C6184702976FD04FB905C61147639243
:102FB000E602EFD24FB67C410E2241119C4736C645
:102FC00032C482972246B2462AA2368541016FD08A
:102FD000CFB68146368582801DC2B2871146639086
:102FE000C602EFD24FB37841B2238E23584341112A
:102FF00036C60297B246410136856FD00FB481467E
:1030000036858280EFD22FB19387C1C64947D8CB8E
:10301000373700001307A7FAD8DB3737000013074C
:1030200087FD98DF37370000130727F4ECC3B0C3E0
:10303000AA850D461385C1C623A0070223A2070255
:1030400023A4070223A6070223A80702D8DF192812
:1030500001456FD08FAEEFD20FACA545EFE00FA8C2
:103060006FD0AFAD11E57D5582807D556FD0EFAC4F
:10307000EFD26FAA2A842E853289AE84EFF0BFFD8D
:103080006DF522852686A545EFE08F930145231C2B
:103090002401230E0400231D0400C9BFEFD2AFA7F3
:1030A0001E2D41112A84C18B85EB1C5595C32EC65C
:1030B0008297AA84B24509CD2A8637550000A28599
:1030C0001305452FEFD0FFCD268541016FD0EFA628
:1030D0001E2C93E707011EAC1E2CA18B89C73E2C2A
:1030E000E554A18BF5F35C5489CF22858297AA849D
:1030F00005E13E2C93E787003EAC5C2C85075CAC79
:10310000E1B785679387F7F0FD8D2EAC8144D5B785
:10311000E957E31BF5FAF1BF5C2D8DCBEFD2AF9FE2
:10312000FD1793F7F70F5CAD2A84014789EF1C590F
:1031300089E70147231D040039A082972A8775D9A2
:10314000E957E309F5FE3A856FD02F9F7D573A8501
:103150008280EFD24F9C582D11E77D55EFD04FF86C
:10316000014521A05C5981C782976FD00F9D695599
:10317000F5B7EFD24F9A582D11E77D55EFD04FF6A6
:10318000014521A01C5D81C782976FD00F9B6955B7
:10319000F5B70CD101458280B707EFBE37E700E0F5
:1031A000938707083CC78280EFD2EF96375500001F
:1031B0001305C532EFD0FFBE6FD02F98138541D2D3
:1031C000828037550020130505808280EFD2AF94AE
:1031D000B707002003A707159307803EC156335752
:1031E000F702B7E700E02386D7402387D7408566FC
:1031F00023A0D710916623A0D710B7F700E023A033
:10320000070023A20700014690C78146D4C7814624
:103210001306F7FF90CBD4CB3D4798C3EFD08FA3D5
:10322000EFF0DFF92A84EFF0DFF9AA852285EFD0ED
:103230003FCF3755000013050511EFD01FB36FD0F6
:10324000CF8F397106DE16DC1ADA1ED82AD62ED4B4
:1032500032D236D03ACE3ECC42CA46C872C676C4C6
:103260007AC27EC073110134EFD0AFC8B7F700E067
:1032700023A20700EFD00F98EFD06FCA731101346B
:10328000F250E2525253C2533255A2551256825650
:103290007247E2475248C248324EA24E124F824F06
:1032A000216173002030B7F600E0984ADC4A37F815
:1032B00000E03305E502BA851307803E3355E50289
:1032C0009846DC468147032688008326C800E30C25
:1032D000C7FE6373E600AE97998FB2973287E3E437
:1032E000A7FE828081478546130700023396F600C9
:1032F0006306A6008507E39BE7FEFD573E858280B7
:10330000EFD26F8185452145EF0070756FD0EF8258
:10331000EFD26F8085451145EF0070746FD0EF815B
:10332000EFC27FFF85454145EF0070736FD0EF809E
:10333000EFC27FFE956537550000014693858537BE
:1033400013050573EFF01FCC6FC03FFF9307000319
:1033500063ECA700931745001565130505423E95DC
:103360001841FD576313F70001458280EFC2BFFA91
:10337000411113F5F50F32C6EFF05FFD11C54E2573
:1033800032460845EF00306041016FC01FFBEFC2BD
:103390009FF813F5F50FEFF07FFBAA87014589C76A
:1033A000CE278847EF00905C6FC03FF9EFC2BFF6B1
:1033B000411113F5F50F3284EFF05FF90DC9AA84BE
:1033C0003755000013050539EFD0BF9DDC408297CB
:1033D000DC447C82C1473EC68D473EC409C41547C4
:1033E000631AE40002C688444C00EF001049410112
:1033F0006FC0BFF405476315E40091473EC6E5B7CB
:103400006315F40093078002D5BF89476315F40064
:1034100093078004E5B791476314F400D147F9BFDF
:1034200099476314F400F147D1BF9D47E31DF4FAB7
:10343000E147E9B7EFC29FEC13F5F50FAE84B2890F
:10344000368A3A89EFF09FF0994731CD4845EFF041
:103450007FE93D472A8499476367A704EFE0AFDD22
:10346000B146B306D402B7070020138707082A869F
:1034700093870708369783160700639F96004C438F
:10348000639C45012E236399350118476316270174
:10349000EFE02FDB814701A87D576389E600328585
:1034A000EFE02FDA9D473E856FC09FE83145330539
:1034B000A4023E9506A123224501231135012324B0
:1034C00025013285F1B7EFC21FE513F5F50FEFF0D7
:1034D000FFE719471DC94845EFF0DFE0BD472A84E3
:1034E000194763E4A702EFE00FD5B1473304F402B4
:1034F000B7070020938707087D57A2978396070098
:103500006398E600EFE0EFD301473A856FC0FFE232
:1035100041677D1798C323A2070023A40700DDB7E6
:10352000EFC2DFDD011113F5F50F328AEFF01FE274
:10353000994721C185442A8463189A0C4845EFF0C5
:103540007FDA3D472A8999476365A702EFE0AFCE4E
:10355000B14AB3075903B704002093840408AA8929
:10356000BE9403970400FD576319F700EFE06FCD99
:1035700099473E8505616FC0BFDB5C4082978545FA
:103580000545EF00D04D5C440D473AC47C823EC8EF
:10359000BE2002CA52CE63804707A1CB0947638190
:1035A000E70608444C000E09EF00302D0808EF0034
:1035B000B02315651305053A4A95504137E700E0F9
:1035C00093060005B307C7002380D74093575600E2
:1035D0009387070485468A07B396C600BA9794C3B3
:1035E0004E85EFE00FC6814769B7930780023EC65C
:1035F000A1473ECC7DB7930780043EC656CC55B755
:1036000091473EC6C147F5B79947E3140AF64845C6
:10361000EFF05FCD3D479947E36DA7F49317350071
:1036200015651305053A3E95584193575700938702
:103630000706B394E4008A0737E700E0BA9784C32B
:103640005DB7EFC25FCDEFF0FFC9B1473305F502BB
:10365000B7070020938707083E955C4199C308454A
:1036600082976FC09FCD397106DE16DC1ADA1ED83C
:103670002AD62ED432D236D03ACE3ECC42CA46C812
:1036800072C676C47AC27EC073110134EFD06F86E1
:103690000545EF00101C19C50545EFF09FFA0545DB
:1036A000EF00101DEFD0AF8773110134F250E252DA
:1036B0005253C2533255A255125682567247E247B0
:1036C0005248C248324EA24E124F824F21617300BF
:1036D0002030397106DE16DC1ADA1ED82AD62ED42E
:1036E00032D236D03ACE3ECC42CA46C872C676C432
:1036F0007AC27EC073110134EFC0BFFF0945EF00ED
:10370000501519C50945EFF0DFF30945EF005016D4
:10371000EFD0EF8073110134F250E2525253C25392
:103720003255A255125682567247E2475248C24855
:10373000324EA24E124F824F2161730020303971F8
:1037400006DE16DC1ADA1ED82AD62ED432D236D0AD
:103750003ACE3ECC42CA46C872C676C47AC27EC051
:1037600073110134EFC0FFF81145EF00900E19C539
:103770001145EFF01FED1145EF00900FEFC03FFA3C
:1037800073110134F250E2525253C2533255A255D2
:10379000125682567247E2475248C248324EA24EF3
:1037A000124F824F216173002030397106DE16DC22
:1037B0001ADA1ED82AD62ED432D236D03ACE3ECC01
:1037C00042CA46C872C676C47AC27EC0731101343A
:1037D000EFC03FF22145EF00D00719C52145EFF0BA
:1037E0005FE62145EF00D008EFC07FF3731101348D
:1037F000F250E2525253C2533255A25512568256DB
:103800007247E2475248C248324EA24E124F824F90
:10381000216173002030397106DE16DC1ADA1ED8F9
:103820002AD62ED432D236D03ACE3ECC42CA46C860
:1038300072C676C47AC27EC073110134EFC07FEBCA
:103840004145EF00100119C54145EFF09FDF4145AB
:10385000EF001002EFC0BFEC73110134F250E252DE
:103860005253C2533255A255125682567247E247FE
:103870005248C248324EA24E124F824F216173000D
:103880002030397106DE16DC1ADA1ED82AD62ED47C
:1038900032D236D03ACE3ECC42CA46C872C676C480
:1038A0007AC27EC073110134EFC0BFE41305000279
:1038B000EF00207A25C113050002EFF09FD8130511
:1038C0000004EFF01FD813050008EFF09FD7130591
:1038D0000010EFF01FD713050020EFF09FD613055F
:1038E000003EEF00E078EFC09FE373110134F25027
:1038F000E2525253C2533255A25512568256724763
:10390000E2475248C248324EA24E124F824F2161C6
:103910007300203013050004EF00A07349FD130568
:103920000008EF00007341F913050010EF0060720A
:1039300059F113050020EF00C07135FD6DB7014549
:103940008280EFC25F9D9C412041A14641111CC075
:10395000B1473EA4DC412316040013F7F7006301CE
:10396000D702A546631ED70005675AA013D74700A4
:103970000D8B01C785466308D7002313040031A0CF
:1039800023120400E5B709677AA099838D8B054758
:103990006389E70081C709476387E70623140400AA
:1039A00021A0930700601EA41848B74701409387E1
:1039B00007806316F704116585451105EF00300A8D
:1039C00093070020B71401407C820D49E1474C0069
:1039D000138504803EC64AC44D25930700407C826F
:1039E0004C009147138504803EC64AC47925084897
:1039F000A285EF00B00808488545EF00F0130145A7
:103A000041016FC09F939307004071BFEFC21F8FAA
:103A10001384C1D0930750035CC8B7470140138695
:103A200041CB9387078074461CC89567938747737B
:103A30007CC2B70700C0F58FC166A1067167130786
:103A40000720D58F1165411138C67CC68545B7075B
:103A50000C00110518C01CC4232204002316040006
:103A6000EF00E07FB7190140930700207C820D4AE8
:103A7000E1474C001385098052C43EC6FD2B9307D5
:103A800000407C824C009147138509803EC652C499
:103A9000ED2308489385C1D0EF00407E0848854556
:103AA000EF009009B75500009386C1D0130630107F
:103AB00093850511138541CBEFF08FB80145410186
:103AC0006FC01F87EFC23F85204193050002084861
:103AD000EF00500B19C51C48CA231375F50F6FC0B2
:103AE000DF857D55EDBFEFC21F8324412E848848BA
:103AF00093050004EF0010097DD99C4842044180E1
:103B0000C2A305456FC07F83EFC2FF80C147384124
:103B1000638BF502C5476395F502544B054693D771
:103B20005600938707063316D6008A07B7E600E0EB
:103B3000B69790C30146084B93055052EF003001F1
:103B400001456FC08FFF544B054693D756009387AE
:103B500007043316D6008A07B7E600E0B69790C38D
:103B60000546D1BF5D7186C696C49AC29EC022DE4C
:103B700026DC2ADA2ED832D636D43AD23ED042CEFD
:103B800046CC72CA76C87AC67EC473110134EFC0BF
:103B90005FB6938741CBA043930550520848EF008E
:103BA000007F19C98545138541CBEFF0EFAE08487A
:103BB00093055052EF007001EFC07FB673110134CE
:103BC0007254B640A64216438643E2545255C2553B
:103BD0003256A256125782577248E248524EC24E8F
:103BE000324FA24F616173002030EFC2CFF241111A
:103BF0008545214502C202C402C69525E1773714E6
:103C000001407C82C1473EC64C008D47130504C06D
:103C10003EC4A5210146A165130504C0AD23375557
:103C2000000013058574EFD0CF97375500001305BA
:103C30004575EFD00F97375500001305858FEFD0EE
:103C40004F96014541016FC04FEFEFC2CFEC3714E3
:103C500001400546A165130504C03523130540380E
:103C6000EFF06FE40146A165130504C0292B6FC076
:103C7000CFECEFC24FEA41118545114502C202C4A3
:103C800002C6F12B85452145D92B85451145C12B10
:103C9000371401408D47C1443EC44C0093070002D5
:103CA0001305048026C67C82C92E85674C00130547
:103CB00004C07C82D9264C00130504806482752ED2
:103CC0003755000013050578EFD0AF8D375500004C
:103CD0001305C578EFD0EF8C375500001305858F9D
:103CE000EFD02F8C014541016FC02FE5397106DE01
:103CF00016DC1ADA1ED82AD62ED432D236D03ACED4
:103D00003ECC42CA46C872C676C47AC27EC073111F
:103D10000134EFC01F9E375500001305857AEFD0A0
:103D20004F88EFC0DF9F73110134F250E2525253BB
:103D3000C2533255A255125682567247E247524834
:103D4000C248324EA24E124F824F21617300203082
:103D5000397106DE16DC1ADA1ED82AD62ED432D2F3
:103D600036D03ACE3ECC42CA46C872C676C47AC273
:103D70007EC073110134EFC0DF9737550000130583
:103D8000C579EFD00F82EFC09F9973110134F250C3
:103D9000E2525253C2533255A255125682567247BE
:103DA000E2475248C248324EA24E124F824F216122
:103DB00073002030EFC22FD6B75400001385847BE8
:103DC000EFC03FFE375500001305457CEFC07FFD77
:103DD000375400001305848FEFC0BFFC1385847B2C
:103DE000EFC03FFCB707002083A50715375500003B
:103DF0001305457DEFC0FFFA1305848FEFC07FFAEE
:103E00000545EFD0BF92EDBFB71702409843B70604
:103E1000FFF841111367170098C3D8433706020013
:103E2000758FD8C39843B706F7FEFD16758F98C3F4
:103E30009843B706FCFFFD16758F98C3D843B706A5
:103E400081FFFD16758FD8C337079F0098C702C43E
:103E500002C69843C166558F98C3B71602400567DE
:103E60009C42F18F3EC6A24785073EC4B24781E718
:103E7000A247E397E7FEB71702409C431397E7007A
:103E80006357070685473EC632478547631FF704D9
:103E9000B7170240D843B706C1FFFD16D8C3D843B1
:103EA000D8C3D84313670740D8C3D843758FD8C346
:103EB000D843B7062900558FD8C39843B7060001E9
:103EC000558F98C3984393166700E3DD06FED843E9
:103ED000B7160240719BD8C3D84313672700D8C3D5
:103EE0002147DC42B18BE39EE7FE4101828002C69E
:103EF00061BF01A001A001A001A001A001A001A03B
:103F000001A001A001A001A001A001A001A001A0A9
:103F100001A001A001A001A001A001A001A001A099
:103F200001A001A001A001A001A001A001A001A089
:103F300001A001A001A001A001A001A001A001A079
:103F400001A001A001A001A001A001A001A001A069
:103F500001A001A001A001A001A001A001A097D192
:103F6000FF1F9381219F171100201301A10917251D
:103F700000001305659F97C5FF1F9385A50813864D
:103F8000818063FAC5008322050023A05500110536
:103F90009105E3EAC5FE13858180938541D263775D
:103FA000B500232005001105E36DB5FEFD427390B9
:103FB00002BC894273904280B72200009382028043
:103FC00073A0023097C2FFFF9382420793E2320050
:103FD00073905230EFF05FE397C2FFFF938242513C
:103FE00073901234730020305841032805004C456B
:103FF00037060140930706403E979346F8FFB1C548
:1040000083250640F58D2320B640D043F18ED4C3DE
:104010001443B3E6060114C3184190479346F7FFD3
:10402000758E90C7D047F18ED4C714454146639929
:10403000C6009447D98E94C7D447558FD8C782807D
:10404000B6979443558F98C382801C43F58F1CC349
:104050008280B70701401387074083A70740584B6A
:10406000698F09C77D8D3335A0008280014582802C
:10407000B707014023AAA74082809C4513F7070198
:1040800013F8F70001C7D8413368E800372702402A
:10409000145B3707000F758F4DEB8546238AD18A55
:1040A000371701406315E5009A2135839AA18E21C7
:1040B00013F7F50F39C318418146854E3D4F930FD5
:1040C000800293028004214E3396DE00B3F8C500CF
:1040D000631116039398260033131F011343F3FF54
:1040E0003377E300B318180133E7E8006397F70765
:1040F00050C98506E39AC6FD18C11307F00F637512
:10410000B70454412146854E3D4F930F80029302E0
:104110008004414EB398CE0033F715016392E80254
:104120001317260001173313EF001343F3FFB37681
:10413000D3003317E800D98E6395F703232A1501BE
:104140000506E319C6FD54C1828037170140E3100C
:10415000E5F603C7418B21DF81BFE39C57F810C907
:1041600049BFE39F57FC23281501D9BFB71701406A
:104170006316F50083C7418B91C3B58108456D8DEA
:104180003335A0008280B71701406316F50083C75E
:10419000418B91C3B58119C20CC982804CC9828000
:1041A000371702405C439146B18B6385D700A14627
:1041B0006382D706B7177A00938707201CC137168A
:1041C00002405C4237070020130707149183BD8B20
:1041D000BA9794231C41B3D7D7005CC15442A18243
:1041E0009D8ABA969422B3D6D70014C55442AD82A4
:1041F0009D8A36971823B3D7E7005CC558423983A8
:10420000937637001387418036971823B3D7E70298
:104210001CC982805C435843C166C983BD8B758FBE
:104220008907C5466393D700C94701EF3747024066
:1042300003270780418B09CF37177A001307072020
:1042400021A83717024058439316E700E3D606FE2D
:1042500037173D0013070790B387E70285B799C565
:10426000371702401C4F5D8D08CF8280B717024080
:10427000984F1345F5FF798D88CF8280EFC2AF89C3
:104280001629F577FD17F58FF621DA257971D58F87
:104290001EA95625FD779387379FF58FD6212A844F
:1042A0002EC6D58F9625D58FB625D58F5EA55E29CE
:1042B000C207C18393F7F7CFD98F5EA96808EFF0E3
:1042C0003FEEB747014093870780B245631AF40475
:1042D000A25756246547B387E702C206C1869841B4
:1042E00063D20604060752244206B3D7E702130737
:1042F00040064186B3D6E702B3F7E702920663555C
:1043000006028E0793872703B3D7E70213F77700D8
:10431000B367D700C207C1831EA445616FC0EF8198
:10432000925745BF0A07C1B7920793872703B3D7B0
:10433000E702BD8BD58FF9BF91C55E250967D98F7F
:104340005EA582805A25F977FD17F98FD5BF13F73F
:10435000F50F85471583B395B7006319F7009307E9
:10436000C500984301CED98D8CC3828089469307BE
:104370004501E318D7FE93070501E5B793C5F5FF9F
:10438000F98DDDB70A216D8D3335A000828013F7DA
:10439000F50F85461583B397B6006311D7025A25EA
:1043A000F98F1A2101454207418381CB0545A1813F
:1043B000B315B5006D8F3335E000828089466314F4
:1043C000D7001A29F1BF5A29E1BFA1818547B397C8
:1043D000B70093C7F7FFC207C1831EA182800147C0
:1043E0006314E60001458280B307E5000507B38644
:1043F000E5009C2383C6F6FFE384D7FE3385D740D0
:104400008280B3C7A5008D8B3307C50081E78D4738
:1044100063EDC700AA87637EE508942185078505BB
:10442000A38FD7FEE3EBE7FE828093763500AA8761
:1044300089CA942185078505A38FD7FE93F6370097
:10444000C5BF9376C7FF138606FE63F0C70683A336
:10445000050083A2450083AF850003AFC50083AE8E
:10446000050103AE450103A3850183A8C50193851A
:10447000450223A0770003A8C5FF23A2570023A469
:10448000F70123A6E70123A8D70123AAC70123AC7C
:10449000670023AE17019387470223AE07FF75B766
:1044A00090419107910523AEC7FEE3EBD7FEE3E60B
:1044B000E7F68280AA8798239386170009EB850583
:1044C00003C7F5FF8507A38FE7FE75FB8280B687DC
:1044D000DDB7AA87982185078505A38FE7FE7DFBB9
:1044E0008280AA87850703C7F7FF6DFF3385A74042
:1044F0007D15828015C27D160147B307E500B3869E
:10450000E5009C2394226396D7006304C700050747
:10451000EDF73385D740828001458280AA8709CA9A
:10452000850503C7F5FF85077D16A38FE7FE65FBAD
:104530003E966393C70082808507A38F07FED5BF91
:104540006D61696E000000007469646C65000000B4
:104550000000010002000100030001000200010050
:10456000040001000200010003000100020001003C
:10457000050001000200010003000100020001002B
:10458000040001000200010003000100020001001C
:10459000060001000200010003000100020001000A
:1045A00004000100020001000300010002000100FC
:1045B00005000100020001000300010002000100EB
:1045C00004000100020001000300010002000100DC
:1045D00007000100020001000300010002000100C9
:1045E00004000100020001000300010002000100BC
:1045F00005000100020001000300010002000100AB
:10460000040001000200010003000100020001009B
:104610000600010002000100030001000200010089
:10462000040001000200010003000100020001007B
:10463000050001000200010003000100020001006A
:10464000040001000200010003000100020001005B
:1046500030313233343536373839414243444546B8
:10466000000000000A205C207C202F0A00000000CF
:104670002D205254202D2020202020546872656166
:1046800064204F7065726174696E6720537973742A
:10469000656D0A004A756C203236203230323300A4
:1046A000202F207C205C202020202025642E2564C3
:1046B0002E2564206275696C642025730A00000051
:1046C0002032303036202D203230323020436F708F
:1046D0007972696768742062792072742D746872C7
:1046E000656164207465616D0A000000284E554CB8
:1046F0004C29000030313233343536373839616275
:104700006364656600000000746F74616C206D6501
:104710006D6F72793A2025640A0000007573656434
:10472000206D656D6F7279203A2025640A000000C3
:104730006D6178696D756D20616C6C6F6361746516
:1047400064206D656D6F72793A2025640A0000005F
:104750006C697374206D656D6F7279207573616714
:104760006520696E666F726D6174696F6E0000001E
:104770006C6973745F6D656D00000000746F206676
:1047800072656520612062616420646174612062E9
:104790006C6F636B3A0A00006D656D3A20307825C6
:1047A0003038782C207573656420666C61673A2018
:1047B00025642C206D6167696320636F64653A200E
:1047C0003078253034780A00686561700000000098
:1047D0006D656D20696E69742C206572726F722030
:1047E000626567696E2061646472657373203078F6
:1047F00025782C20616E6420656E6420616464728B
:1048000065737320307825780A000000F6180000E0
:10481000F0180000041900000C1900001419000021
:10482000DC4F0000F04F000000500000145000006A
:10483000205000002C50000030500000405000007C
:1048400050500000585000006C5000007C50000098
:1048500084500000905000009C500000B0500000B8
:10486000B8500000C8500000D8500000F0500000C0
:1048700000510000A04800002D2D46756E6374693C
:104880006F6E204C6973743A0A0000005F5F00008D
:10489000252D313673202D2D2025730A00000000B0
:1048A000556E6B6E6F776E006465766963650000A8
:1048B000252D2A2E732020202020202020207479CE
:1048C0007065202020202020202020726566206333
:1048D0006F756E740A000000202D2D2D2D2D2D2DAD
:1048E0002D2D2D2D2D2D2D2D2D2D2D2D2D202D2D05
:1048F0002D2D2D2D2D2D2D2D0A000000252D2A2E9C
:104900002A7320252D32307320252D38640A0000AB
:104910006576656E74000000252D2A2E73202020F8
:104920002020207365742020202073757370656EBD
:1049300064207468726561640A00000020202D2DD7
:104940002D2D2D2D2D2D2D2D202D2D2D2D2D2D2DA4
:104950002D2D2D2D2D2D2D0A00000000252D2A2E68
:104960002A73202030782530387820253033643A77
:1049700000000000252D2A2E2A73202030782530B3
:10498000387820300A0000006D61696C626F780031
:10499000252D2A2E7320656E7472792073697A65CD
:1049A0002073757370656E64207468726561640A43
:1049B00000000000202D2D2D2D20202D2D2D2D200F
:1049C0002D2D2D2D2D2D2D2D2D2D2D2D2D2D0A0067
:1049D000252D2A2E2A7320253034642020253034BA
:1049E000642025643A000000252D2A2E2A732025F4
:1049F0003034642020253034642025640A0000000F
:104A00006D7367717565756500000000252D2A2E90
:104A10007320656E7472792073757370656E64208F
:104A20007468726561640A00202D2D2D2D20202DC3
:104A30002D2D2D2D2D2D2D2D2D2D2D2D2D0A000023
:104A4000252D2A2E2A732025303464202025643A0F
:104A500000000000252D2A2E2A73202530346420E2
:104A60002025640A000000006D7574657800000060
:104A7000252D2A2E732020206F776E6572202068E6
:104A80006F6C642073757370656E642074687265F2
:104A900061640A00202D2D2D2D2D2D2D2D202D2D45
:104AA0002D2D202D2D2D2D2D2D2D2D2D2D2D2D2D43
:104AB0002D0A0000252D2A2E2A7320252D382E2A76
:104AC0007320253034642025640A000073656D610D
:104AD00070686F7265000000252D2A2E73207620E5
:104AE000202073757370656E6420746872656164EC
:104AF0000A000000202D2D2D202D2D2D2D2D2D2DAA
:104B00002D2D2D2D2D2D2D0A00000000252D2A2EB6
:104B10002A7320253033642025643A00252D2A2E5F
:104B20002A7320253033642025640A007468726576
:104B300061640000252D2A2E732070726920207375
:104B40007461747573202020202020737020202031
:104B50002020737461636B2073697A65206D6178BE
:104B60002075736564206C656674207469636B20BE
:104B7000206572726F720A00202D2D2D20202D2DA0
:104B80002D2D2D2D2D202D2D2D2D2D2D2D2D2D2D62
:104B9000202D2D2D2D2D2D2D2D2D2D20202D2D2D6C
:104BA0002D2D2D20202D2D2D2D2D2D2D2D2D2D205C
:104BB0002D2D2D0A00000000252D2A2E2A732025D8
:104BC00033642000207265616479202000000000B9
:104BD0002073757370656E640000000020696E6953
:104BE000742020200000000020636C6F736520207B
:104BF000000000002072756E6E696E670000000094
:104C000020307825303878203078253038782020CA
:104C1000202025303264252520202030782530388A
:104C20007820253033640A0074696D6572000000D5
:104C3000252D2A2E732020706572696F64696320A8
:104C4000202074696D656F7574202020202020203D
:104C5000666C61670A000000202D2D2D2D2D2D2D55
:104C60002D2D2D202D2D2D2D2D2D2D2D2D2D202D8E
:104C70002D2D2D2D2D2D2D2D2D2D0A00252D2A2EBE
:104C80002A732030782530387820307825303878ED
:104C9000200000006163746976617465640A000035
:104CA00064656163746976617465640A000000007C
:104CB00063757272656E74207469636B3A3078251F
:104CC0003038780A000000006C69737420616C6CE5
:104CD0002073796D626F6C20696E207379737465CF
:104CE0006D0000006C697374000000006C697374DF
:104CF0002064657669636520696E207379737465D5
:104D00006D0000005F5F636D645F6C6973745F6466
:104D100065766963650000006C697374206465766C
:104D200069636520696E2073797374656D00000096
:104D30006C6973745F646576696365006C6973742C
:104D40002074696D657220696E2073797374656D66
:104D5000000000005F5F636D645F6C6973745F7473
:104D6000696D6572000000006C6973742074696D70
:104D7000657220696E2073797374656D00000000A0
:104D80006C6973745F74696D657200006C6973742B
:104D9000206D657373616765207175657565206940
:104DA0006E2073797374656D000000005F5F636D42
:104DB000645F6C6973745F6D7367717565756500A9
:104DC0006C697374206D65737361676520717565B7
:104DD000756520696E2073797374656D000000003D
:104DE0006C6973745F6D736771756575650000003C
:104DF0006C697374206D61696C20626F7820696ED4
:104E00002073797374656D005F5F636D645F6C69B7
:104E100073745F6D61696C626F7800006C697374A4
:104E2000206D61696C20626F7820696E20737973E0
:104E300074656D006C6973745F6D61696C626F7825
:104E4000000000006C697374206D757465782069CA
:104E50006E2073797374656D000000005F5F636D91
:104E6000645F6C6973745F6D757465780000000031
:104E70006C697374206D7574657820696E20737920
:104E80007374656D000000006C6973745F6D7574F8
:104E9000657800006C697374206576656E742069AE
:104EA0006E2073797374656D000000005F5F636D41
:104EB000645F6C6973745F6576656E7400000000F2
:104EC0006C697374206576656E7420696E207379E1
:104ED0007374656D000000006C6973745F657665BE
:104EE0006E7400006C6973742073656D6170686F17
:104EF000726520696E2073797374656D000000001F
:104F00005F5F636D645F6C6973745F73656D0000F0
:104F10006C6973742073656D6170686F7265206968
:104F20006E2073797374656D000000006C69737492
:104F30005F73656D000000006C69737420746872A3
:104F4000656164005F5F636D645F6C6973745F7457
:104F500068726561640000006C6973742074687223
:104F6000656164006C6973745F7468726561640084
:104F700073686F772052542D54687265616420768F
:104F8000657273696F6E20696E666F726D617469A8
:104F90006F6E00005F5F636D645F76657273696F4B
:104FA0006E00000073686F772052542D546872654C
:104FB00061642076657273696F6E20696E666F72C8
:104FC0006D6174696F6E000076657273696F6E0053
:104FD0002D000000257300002F000000436861725F
:104FE0006163746572204465766963650000000042
:104FF000426C6F636B204465766963650000000056
:105000004E6574776F726B20496E7465726661636A
:10501000650000004D5444204465766963650000D6
:1050200043414E2044657669636500005254430055
:10503000536F756E642044657669636500000000F7
:105040004772617068696320446576696365000032
:10505000493243204275730055534220536C6176A8
:105060006520446576696365000000005553422061
:10507000486F73742042757300000000535049203C
:10508000427573005350492044657669636500009A
:105090005344494F2042757300000000504D20508A
:1050A000736575646F204465766963650000000070
:1050B0005069706500000000506F7274616C20448C
:1050C000657669636500000054696D65722044650A
:1050D00076696365000000004D697363656C6C61FF
:1050E0006E656F7573204465766963650000000026
:1050F00053656E736F7220446576696365000000C6
:10510000546F75636820446576696365000000002C
:105110007561727431000000546F6F206D616E799B
:1051200020617267732021205765206F6E6C792093
:105130005573653A0A0000002573200025733A2054
:10514000636F6D6D616E64206E6F7420666F756E37
:10515000642E0A0052542D5468726561642073688D
:10516000656C6C20636F6D6D616E64733A0A00004C
:105170005F5F636D645F0000252D313673202D2045
:1051800025730A0053686F7720746865206D656D1C
:105190006F727920757361676520696E2074686528
:1051A0002073797374656D2E000000005F5F636D7E
:1051B000645F6672656500004C6973742074687280
:1051C0006561647320696E207468652073797374F7
:1051D000656D2E005F5F636D645F7073000000009B
:1051E00052542D546872656164207368656C6C203C
:1051F00068656C702E0000005F5F636D645F6865BA
:105200006C7000006D7368200000000066696E73AA
:10521000682000003E00000066696E73683A2063F3
:10522000616E206E6F742066696E642064657669B5
:1052300063653A2025730A006E6F206D656D6F728D
:105240007920666F72207368656C6C0A000000003C
:10525000747368656C6C00007368727800000000FD
:1052600008000000256300000825732020080000C6
:10527000082008001B5B324B0D00000025732573CE
:10528000000000007265616420737461747573209E
:1052900066726F6D206861726477617265207069F3
:1052A0006E00000070696E52656164007772697407
:1052B000652076616C756520746F20686172647713
:1052C0006172652070696E0070696E5772697465ED
:1052D0000000000073657420686172647761726514
:1052E0002070696E206D6F646500000070696E4DFE
:1052F0006F646500546F20696E697469616C697AC6
:1053000065206465766963653A2573206661696C1A
:1053100065642E20546865206572726F7220636F19
:1053200064652069732025640A0000001B5B324A13
:105330001B5B4800746865207465726D696E616CF2
:105340002073637265656E005F5F636D645F636C9D
:10535000656172007265626F6F74207468652062A7
:105360006F617264000000005F5F636D645F72656F
:10537000626F6F7400000000AC3300006C330000FB
:105380008E33000034340000C634000020350000A5
:105390006765742070696E20696E6465780D0A0017
:1053A00001000000160000000200000017000000CD
:1053B00004000000180000000800000019000000B0
:1053C000100000001A00000020000000270000006C
:1053D00040000000270000008000000027000000BF
:1053E000000100002700000000020000270000006C
:1053F0000004000038000000000800003800000031
:1054000000100000380000000020000038000000FC
:10541000004000003800000000800000380000005C
:10542000FFFFFFFF00000000000000000000000080
:10543000FFFFFFFF00000000000000000000000070
:105440000200000020330000001001400020000096
:105450000300000020330000001001400040000065
:105460000400000020330000001001400080000014
:10547000FFFFFFFF00000000000000000000000030
:10548000FFFFFFFF00000000000000000000000020
:10549000FFFFFFFF00000000000000000000000010
:1054A000FFFFFFFF00000000000000000000000000
:1054B000FFFFFFFF000000000000000000000000F0
:1054C0000A00000010330000000801400100000045
:1054D0000B00000010330000000801400200000033
:1054E0000C00000010330000000801400400000020
:1054F0000D0000001033000000080140080000000B
:105500000E000000103300000008014010000000F1
:105510000F000000103300000008014020000000D0
:10552000100000001033000000080140400000009F
:10553000110000001033000000080140800000004E
:105540001200000000330000000C014001000000C8
:105550001300000000330000000C014002000000B6
:105560001400000000330000000C014004000000A3
:105570001500000000330000000C01400004000092
:105580001600000000330000000C0140000800007D
:10559000FFFFFFFF0000000000000000000000000F
:1055A000FFFFFFFF000000000000000000000000FF
:1055B0001900000000330000000C01400010000042
:1055C0001A00000000330000000C01400020000021
:1055D0001B00000000330000000C014000400000F0
:1055E0001C00000000330000000C0140008000009F
:1055F0001D00000010330000000801400001000001
:105600001E000000103300000008014000020000EE
:105610001F000000103300000008014000040000DB
:1056200020000000103300000008014000080000C6
:1056300021000000103300000008014000100000AD
:10564000220000001033000000080140002000008C
:10565000FFFFFFFF0000000000000000000000004E
:10566000FFFFFFFF0000000000000000000000003E
:105670002500000010330000000801400040000039
:1056800026000000103300000008014000800000E8
:105690002700000000330000000C0140080000005B
:1056A0002800000000330000000C01401000000042
:1056B0002900000000330000000C01402000000021
:1056C0002A00000000330000000C014040000000F0
:1056D0002B00000000330000000C0140800000009F
:1056E000FFFFFFFF000000000000000000000000BE
:1056F0002D00000000330000000C014000010000FC
:105700002E00000000330000000C014000020000E9
:10571000FFFFFFFF0000000000000000000000008D
:10572000FFFFFFFF0000000000000000000000007D
:1057300070696E0042390000083B0000E63A000044
:10574000C43A00003E3900005B442F62757A7A65E6
:10575000725D2000555345525F42555A5A45525F7B
:10576000496E697421000000746573745F7573007D
:105770005F5F636D645F746573745F7573000000D1
:105780005B442F6C65645D2000000000555345525A
:105790005F4C45445F496E69742100002068617266
:1057A0006466756C740D0A00204E4D492048616E88
:1057B000646C65720D0A00005B492F6C65645D20A6
:1057C000000000004D43553A2043483332563230F2
:1057D00078000000537973436C6B3A202564487A53
:1057E000000000007047000050470000EE0E00006F
:1057F000E44C0000C84C0000C01A0000044D00003A
:10580000EC4C0000941C0000304D0000184D0000CE
:10581000941C0000544D00003C4D00005A1D000037
:10582000804D0000684D00005A1D0000AC4D000086
:105830008C4D000008220000E04D0000C04D00002B
:1058400008220000084E0000F04D00009E1B0000E2
:10585000344E00001C4E00009E1B00005C4E0000F9
:10586000444E0000761F0000884E0000704E00007D
:10587000761F0000AC4E0000944E00003220000065
:10588000D84E0000C04E000032200000004F000043
:10589000E44E0000182100002C4F0000104F0000C3
:1058A00018210000444F0000384F0000321E000055
:1058B000644F0000584F0000321E0000944F00005B
:1058C000704F00007C1A0000C84F0000A44F000079
:1058D0007C1A0000AC5100008451000088230000B5
:1058E000D4510000B85100007A230000F8510000A4
:1058F000E051000022230000A45200008452000066
:10590000922F0000C8520000AC520000782F000017
:10591000EC520000D45200005E2F000048530000FB
:1059200034530000A83100006853000054530000B5
:105930009831000070570000685700004A3C000092
:10594000440400004C040000303300000C3A000016
:1059500050040000EA3B0000723C000006260000F4
:0459600048040000F7
:10596400010000000400002004000020800000006A
:105974000200000014000020140000202000000099
:105984000300000024000020240000202400000064
:105994000400000034000020340000202000000037
:1059A40005000000440000204400002030000000F6
:1059B4000600000054000020540000203C000000B9
:1059C400090000006400002064000020440000007E
:1059D4000A00000074000020740000202C00000065
:1059E400FFFF00000000000000000000FFFF0000B7
:1059F4000000000000000000FFFF000000000000A5
:105A040000000000FFFF0000000000000000000094
:105A1400FFFF00000000000000000000FFFF000086
:105A24000000000000000000FFFF00000000000074
:105A340000000000FFFF0000000000000000000064
:105A4400FFFF00000000000000000000FFFF000056
:105A54000000000000000000FFFF00000000000044
:105A640000000000FFFF0000000000000000000034
:105A7400FFFF00000000000000000000FFFF000026
:105A84000000000000000000FFFF00000000000014
:105A940000000000FFFF0000000000000000000004
:105AA40000000000010203040102030406070809C0
:085AB40000D8B8050204060841
:00000001FF
